:10000000971104009381818117410400130181FF3E
:10001000170500001305456B97050400938585FEC1
:10002000170604001306060063FCC50083220500C2
:1000300023A055001305450093854500E3E8C5FE60
:1000400017050400130505FE9705040093850517A1
:100050006378B5002320050013054500E36CB5FE69
:10006000170500001305452DEF00802BEF0000322F
:10007000EF00400113050002EF0080286F00000030
:040080006780000095
:1000840037050400130101FF1305050023261100A1
:10009400EF0080228320C100130500001301010139
:1000A40067800000130101FF23248100232611002F
:1000B4001304050003450500630A05001304140036
:1000C400EF00C02303450400E31A05FE8320C100AA
:1000D4000324810013010101678000006F000022E6
:1000E400130101FD232291022326110223248102FC
:1000F4002320210393040500634C05041309010024
:10010400130401001307A00063940400631E240178
:10011400B3E7E4021304140093870703B3C4E402AF
:10012400A30FF4FE6FF05FFE1304F4FF0345040015
:10013400EFF0DFFAE31A24FF8320C10203248102D3
:100144008324410203290102130101036780000093
:100154001305D002EFF09FF8B30490406FF01FFA3C
:1001640067800000130101FB232C410123261102A7
:10017400232481022322910223202103232E3101EF
:10018400232A5101130A0500034505002322F10423
:1001940093074103232AB102232CC102232ED10247
:1001A4002320E10423240105232611052326F1003D
:1001B4006308050413040000930A500293043006F4
:1001C40013093007930940066310550733078A0063
:1001D4006F0000016386970663882709638A370BDB
:1001E400834717001304140013071700E39407FE52
:1001F40013041400B3078A0003C50700E31605FCC3
:100204008320C102130500000324810283244102D8
:10021400032901028329C101032A8101832A41019F
:100224001301010567800000EFF05FEB1304140075
:10023400B3078A0003C50700E31805F86FF05FFCF5
:100244008327C1001304140003A507009387470004
:100254002326F100EFF09FE8B3078A0003C50700E7
:10026400E31405F66FF0DFF98327C10013041400CB
:1002740003A50700938747002326F100EFF09FE2D0
:10028400B3078A0003C50700E31005F46FF05FF7B6
:100294008327C1001304140003A5070093874700B4
:1002A4002326F100EFF0DFE3B3078A0003C507005C
:1002B400E31C05F06FF0DFF4130101FF2324810038
:1002C400232611001304050003450500630A0500F5
:1002D40013041400EF00800203450400E31A05FE32
:1002E4001305A000EF0080018320C1001305000066
:1002F4000324810013010101678000003717007097
:1003040083270700E39E07FE2320A70067800000E1
:10031400B7C7004403A587FF678000009305050065
:100324009306000013060000130500006F00C00EC2
:10033400130101FF23248100232291009307406CC1
:100344001304406C3304F4401354244093142400E5
:100354009384C4FF23261100B384F400630C0400C7
:1003640083A704001304F4FF9384C4FFE780070009
:10037400E31804FE8320C100032481008324410088
:100384001301010167000008130101FF2324810008
:10039400232021019307406C1309406C3309F94071
:1003A4002322910023261100135929401304406C81
:1003B40093040000630C0900832704009384140051
:1003C40013044400E7800700E31899FEE7000008DF
:1003D4009307406C1309406C3309F94013592940C1
:1003E4001304406C93040000630C09008327040089
:1003F4009384140013044400E7800700E31899FE73
:100404008320C100032481008324410003290100C7
:100414001301010167800000130101FE232C8100F8
:100424003704040083270402232A9100232821018E
:100434002326310123244101232E110093040500B6
:1004440013890500130A0600938906006382070CCA
:1004540003A747001305F001930517006352E50451
:10046400B707000093870700638E070A1305001976
:1004740017030000E700C3B8930705006304050AE7
:100484000327040223220500232405182320E50062
:100494002320A40223260518930510001307000047
:1004A40013152700639A040223A2B700B387A70099
:1004B40023A42701130500008320C1010324810123
:1004C40083244101032901018329C100032A8100F6
:1004D4001301010267800000B386A70023A4460924
:1004E40003A88718130610003317E6003366E800E4
:1004F40023A4C71823A4361193062000E396D4FA44
:1005040083A6C71833E7E60023A6E7186FF0DFF9E0
:10051400B7070400138747022320E40293874702A6
:100524006FF01FF31305F0FF6FF01FF9130101FDC6
:1005340023286101370B000023202103232C4101D0
:10054400232A510123267101232481012326110228
:100554002324810223229102232E3101232291019B
:100564002320A101930A050013890500B70B040099
:10057400130A1000130CF0FF130B0B0083A90B02DA
:1005840063800906138D0B0203A44900931424000D
:100594001304F4FFB3849900634E0400630E090648
:1005A40083A74410630AF9061304F4FF9384C4FF79
:1005B400E31684FF63060B0283A749006398070CC4
:1005C40083A70900638E0700138509002320FD001B
:1005D40017030000E700C3A283290D00E39609FA7C
:1005E4008320C102032481028324410203290102DE
:1005F4008329C101032A8101832A4101032B0101BB
:10060400832BC100032C8100832C4100032D0100A6
:10061400130101036780000083A7490003A7440076
:100624009387F7FF638A870423A20400E30E07F687
:1006340083A78918B3168A0083AC4900B3F7F60080
:100644006388070283A7C918B3F6F600639A060203
:1006540083A5440813850A00E700070083A749001F
:10066400E39E97F183270D00E38037F56FF01FF1C8
:10067400E70007006FF09FFE23A289006FF01FFBC5
:1006840003A54408E70007006FF05FFD138D090020
:1006940083A90900E39A09EE6FF09FF404000000B7
:1006A4001400000003000000474E5500319DF70878
:1006B4001F2EA6DB447D63AE8DC9807D6CF217FFCF
:1006C40048656C6C6F20576F726C642066726F6D36
:1006D400206B72765F652100300500000000000089
:00000001FF
